:03000000020AAF42
:0C0AAF00787FE4F6D8FD75815C020AF641
:0A0C6800C0F9A4B0999282F88090C0
:100B3B001D08342057415920524F414420545241F3
:100B4B004646494320434F4E54524F4C4C20000BCA
:100B5B003A534F555448204F50454E000B254E4F9E
:100B6B00525448204F50454E000A304541535420B3
:100B7B004F50454E000A4557455354204F50454E54
:010B8B000069
:0E0C4B00E4FFFE0FBF00010EBE13F8BF88F5D8
:010C59002278
:100B8D007F01120C5A7F38120C5A7F80120C5A7F3B
:100B9D000C120C5AE4F54FF5507B007A00790812CF
:100BAD000C23C3E5509FE54F9E500F7408120C386F
:0B0BBD000550E55070E3054F80DF227B
:10090F008E518F527F01120C5A120B8D7F80120C59
:10091F005A120C4B7F0C120C5A120C4BE5526401FD
:10092F00455170317FC0120C5A120C4BE4F54FF544
:10093F00507B007A007925120C23C3E5509FE54FB9
:10094F009E50127425120C38120C4B0550E5507046
:10095F00E0054F80DCE5526402455170317FC012D3
:10096F000C5A120C4BE4F54FF5507B007A0079309E
:10097F00120C23C3E5509FE54F9E50127430120C9A
:10098F0038120C4B0550E55070E0054F80DCE552F6
:10099F006403455170317FC0120C5A120C4BE4F5B1
:1009AF004FF5507B007A00793A120C23C3E5509F24
:1009BF00E54F9E5012743A120C38120C4B0550E54D
:1009CF005070E0054F80DCE5526404455170317F73
:1009DF00C0120C5A120C4BE4F54FF5507B007A0005
:1009EF007945120C23C3E5509FE54F9E5012744575
:1009FF00120C38120C4B0550E55070E0054F80DC9F
:060A0F00120C4B020C4B1F
:100C0300E4FDFCC3ED9FEC9E5015E4FBFA0BBB0027
:0F0C1300010ABA04F8BBFBF50DBD00010C80E42B
:010C220022AF
:040BC8007F097E0023
:040BCC008E518F5265
:100BD00078537C007D007BFF7A0C79687E007F0A69
:100BE0001208D0E4F580A952E9D39552E49551500A
:100BF00011745329F8E6F5807F967E00120C0319D4
:020C000080E68C
:010C020022CF
:100A1500E4F5B0D290C291C292D293C294C295D25B
:100A250096C297C2A0D2A1C2A2C2A3C290C291D2BD
:100A3500927F017E0012090F120BC8C296D2977FD2
:100A4500047E00120BCCC292D290C296C297D2A05D
:100A55007F027E0012090F120BC8C293D2947F0445
:100A65007E00120BCCC2A0D296C293C294D2957FBF
:100A7500037E0012090F120BC8C2A1D2A27F047E09
:100A850000120BCCC295D293C2A1C2A2D2A37F04FD
:100A95007E0012090F120BC8C290D2917F047E000E
:0A0AA500120BCCC2A3D2A1020A1862
:0E0C5A008FB0C2A4C2A5D2A6120C4BC2A62215
:050C38002550F8E6FF65
:0E0C3D008FB0D2A4C2A5D2A6120C4BC2A62222
:100ABB00020A15E493A3F8E493A34003F68001F232
:100ACB0008DFF48029E493A3F85407240CC8C3333C
:100ADB00C4540F4420C8834004F456800146F6DF0B
:100AEB00E4800B0102040810204080900B3BE47E55
:100AFB00019360BCA3FF543F30E509541FFEE49300
:100B0B00A360010ECF54C025E060A840B8E493A3C6
:100B1B00FAE493A3F8E493A3C8C582C8CAC583CAF1
:100B2B00F0A3C8C582C8CAC583CADFE9DEE780BEA9
:010B8C000068
:10080000E709F608DFFA8046E709F208DFFA803EDA
:1008100088828C83E709F0A3DFFA8032E309F608C7
:10082000DFFA8078E309F208DFFA807088828C832F
:10083000E309F0A3DFFA806489828A83E0A3F608E3
:10084000DFFA805889828A83E0A3F208DFFA804CBD
:1008500080D280FA80C680D4806980F28033801094
:1008600080A680EA809A80A880DA80E280CA8033FD
:1008700089828A83ECFAE493A3C8C582C8CCC58375
:10088000CCF0A3C8C582C8CCC583CCDFE9DEE78045
:100890000D89828A83E493A3F608DFF9ECFAA9F0C4
:1008A000EDFB2289828A83ECFAE0A3C8C582C8CC1A
:1008B000C583CCF0A3C8C582C8CCC583CCDFEADE33
:1008C000E880DB89828A83E493A3F208DFF980CC95
:1008D00088F0EF60010E4E60C388F0ED2402B4048E
:1008E0000050B9F582EB2402B4040050AF23234535
:0608F00082239008507302
:100C2300E4FFFE1208F6600C0FEF70010E09E97085
:050C3300F20A80EF222F
:1008F600BB010689828A83E0225002E722BBFE0200
:09090600E32289828A83E4932232
:00000001FF
