:0300000002097B77
:0C097B00787FE4F6D8FD75811502093282
:0A098700C0F9A4B0999282F88090A4
:10095B00E4FDFCC3ED9FEC9E5015E4FBFA0BBB00D2
:0F096B00010ABA04F8BBFBF50DBD00010C80E4D6
:01097A00225A
:0408F6008E088F09D0
:1008FA00780A7C007D007BFF7A0979877E007F0A6F
:10090A001208D0E4F5A0A909E9D39509E50864809D
:10091A00F87480985011740A29F8E6F5A07F967E3B
:07092A000012095B1980E1D6
:0109310022A3
:10093200C291C292C290D2907F097E001208F6C282
:1009420090D2917F047E001208F6C291D2927F0962
:090952007E001208F6C29280DD5D
:10080000E709F608DFFA8046E709F208DFFA803EDA
:1008100088828C83E709F0A3DFFA8032E309F608C7
:10082000DFFA8078E309F208DFFA807088828C832F
:10083000E309F0A3DFFA806489828A83E0A3F608E3
:10084000DFFA805889828A83E0A3F208DFFA804CBD
:1008500080D280FA80C680D4806980F28033801094
:1008600080A680EA809A80A880DA80E280CA8033FD
:1008700089828A83ECFAE493A3C8C582C8CCC58375
:10088000CCF0A3C8C582C8CCC583CCDFE9DEE78045
:100890000D89828A83E493A3F608DFF9ECFAA9F0C4
:1008A000EDFB2289828A83ECFAE0A3C8C582C8CC1A
:1008B000C583CCF0A3C8C582C8CCC583CCDFEADE33
:1008C000E880DB89828A83E493A3F208DFF980CC95
:1008D00088F0EF60010E4E60C388F0ED2402B4048E
:1008E0000050B9F582EB2402B4040050AF23234535
:0608F00082239008507302
:00000001FF
