:0300000002092FC3
:0C092F00787FE4F6D8FD7581070208000F
:10080000E4F5A07F381209131209047F801209133E
:100810001209047F0C1209131209047F4D120921D9
:100820001209047F4F1209211209047F5412092171
:100830001209047F411209211209047F4C12092177
:100840001209047F491209211209047F4212092169
:100850001209047F201209211209047F5012092174
:100860001209047F411209211209047F541209213F
:100870001209047F481209211209047F411209213B
:100880001209047F4E1209211209047FC0120913B4
:100890001209047F321209211209047F3012092142
:1008A0001209047F311209211209047F391209212A
:1008B0001209047F301209211209047F3012092124
:1008C0001209047F301209211209047F3012092114
:1008D0001209047F311209211209047F3012092103
:1008E0001209047F301209211209047F38120921EC
:1008F0001209047F31120921120904120904120994
:0409000004020803E2
:0E0913008FA0C2B0C2B1D2B2120904C2B22289
:0E0921008FA0D2B0C2B1D2B2120904C2B2226B
:0E090400E4FFFE0FBF00010EBE13F8BF88F522
:0109120022C2
:00000001FF
