:03000000020800F3
:0C080000787FE4F6D8FD758143020847BC
:100914001F084D4F54414C49422050415448414EC8
:10092400202D2032303139303030303130303831D0
:10093400001B27435345202D20534F555448454110
:0E094400535420554E495645525349545900BC
:10088C00E4F5A07F381209901209817F801209903B
:10089C001209817F0C120990120981E4F542F5438B
:1008AC007B007A00790812096CC3E5439FE5429EF0
:1008BC00501774082543F8E6FF12099E12098105AA
:1008CC0043E54370DB054280D77FC01209901209C3
:1008DC0081E4F542F5437B007A00792712096CC359
:1008EC00E5439FE5429E501774272543F8E6FF1217
:1008FC00099E1209810543E54370DB054280D7123E
:08090C00098112098102088F24
:0E0990008FA0C2B0C2B1D2B2120981C2B2228F
:0E099E008FA0D2B0C2B1D2B2120981C2B22271
:0E098100E4FFFE0FBF00010EBE13F8BF88F5A5
:01098F002245
:10080C0002088CE493A3F8E493A34003F68001F26E
:10081C0008DFF48029E493A3F85407240CC8C333ED
:10082C00C4540F4420C8834004F456800146F6DFBC
:10083C00E4800B0102040810204080900914E47E2F
:10084C00019360BCA3FF543F30E509541FFEE493B1
:10085C00A360010ECF54C025E060A840B8E493A378
:10086C00FAE493A3F8E493A3C8C582C8CAC583CAA3
:10087C00F0A3C8C582C8CAC583CADFE9DEE780BE5B
:0109520000A4
:10096C00E4FFFE120953600C0FEF70010E09E970E1
:05097C00F20A80EF22E9
:10095300BB010689828A83E0225002E722BBFE02A2
:09096300E32289828A83E49322D5
:00000001FF
